:020000040800F2
:1000000040050020C9000008911600085B15000893
:1000100000000000000000000000000000000000E0
:10002000000000000000000000000000DB160008D7
:100030000000000000000000D9160008DD160008CE
:10004000DB00000800000000DB000008DB00000807
:10005000DB000008DB000008DB0000085703000895
:100060000000000029030008DB000008DB00000896
:10007000DB000008DB000008DB00000800000000D7
:10008000DB0000080000000000000000DB000008AA
:10009000DB000008DB000008DB000008DB000008D4
:1000A000DB000008DB000008DB000008DB000008C4
:1000B000C11A00080348854600F03EF80048004792
:1000C000FD1A000840050020044880470448004706
:1000D000FEE7FEE7FEE7FEE7FEE7FEE7551700084E
:1000E000B500000830B50B4601460020202201244F
:1000F00009E00D46D5409D4205D31D469540491B5C
:100100002546954040191546521E002DF1DC30BDA4
:1001100070B500242546002801DA01244042002958
:1001200001DA01254942FFF7DDFFAC4200D0404231
:10013000002C00D0494270BD064C0125064E05E05A
:10014000E36807CC2B430C3C98471034B442F7D3F8
:10015000FFF7B4FF5C1D00087C1D000870B5044665
:1001600000688168490720D5816810264907002961
:1001700005DA8168890702D481683143816000F023
:100180006DFD05460DE000F069FD401B022808D911
:10019000606C30436064A06C01210843A064084691
:1001A00070BD206880684007EDD4002070BD10B598
:1001B0000146406A426C50231A420AD1416C012226
:1001C0005202114341640168CA681205920F05D0BA
:1001D00020E0C06B026B0846904710BD026A002AFF
:1001E00018D10A68120715D58A6853070122002B17
:1001F00009DB4B680C24A3434B60416C1302994309
:100200001143416406E0416C202319434164816C31
:100210001143816400F02EF910BD10B5406A416CA5
:10022000402211434164816C04221143816400F037
:100230005AF910BD10B5406A00F054F910BDF8B578
:100240000446006881688907890F012928D101685F
:10025000C90702D1C168090422D58168052211406D
:100260001025012601290FD18168022211438160E6
:1002700021680320086000F0F1FC07460CE000F064
:10028000EDFCC01B022807D9606C28436064A06C99
:100290003043A0640120F8BD20688068C007EED11B
:1002A0000020F8BDF8B50446002000902068816861
:1002B0008907890F012905D10168C9072CD1C168B7
:1002C000090429D48168154A102611400125002906
:1002D00015D1816829438160124811490068FFF7F0
:1002E00001FF00E0401E00900028FBD100F0B6FCAA
:1002F00007460CE000F0B2FCC01B022807D9606C76
:1003000030436064A06C2843A0640120F8BD2068DD
:100310000068C043C007EDD10020F8BD1700008081
:1003200040420F002000002010B5024800F07EFA85
:1003300010BD00000401002010B50468636043682C
:10034000102B036803D099600068C26010BD9A60EA
:100350000068C16010BD10B50120800200F0BEFB36
:1003600010BDFEE7F8B5002504464034009522781C
:10037000012A39D00122227003689E68760767D46B
:10038000384F4E68BE424DD09E6A0F78BA40164331
:100390009E620123826B1B079A421FD0012A1DD047
:1003A000022A1BD0032A19D0042A17D0052A15D0F7
:1003B000062A13D0072A11D002688B68566976077F
:1003C000760FB3420AD05369DB08DB005361006843
:1003D00042690B7A5B075B0F1A4342610A68102A75
:1003E00004D0112A02D038E00220F8BD1E488368EC
:1003F000102A07D001229205134383600868102851
:1004000003D02AE00122D205F6E71948174900680F
:10041000FFF768FE0A21484300E0401E00900028D4
:10042000FBD11AE0986A0E78B2409043986209684E
:10043000102901D0112910D10B488268102904D04D
:10044000012189058A43826007E00121C905F9E796
:10045000416C202211434164012500202070284670
:10046000F8BD0000011000000027014040420F00CD
:1004700020000020F8B5174C07462088A188A289E3
:100480004018218989184018218A40180521FFF752
:1004900029FE114D86B26E806088E188E28940189D
:1004A000618989184018618A40180521FFF71AFEF2
:1004B0000A49FF2280B274189032094BA8809442F6
:1004C00000D26B804018904200D2AB80384600F0DA
:1004D0004FF9F8BDE400002000000020F7F8FFFF0E
:1004E000FD07000070477047F8B500250446002856
:1004F00003D0606C002802D008E00120F8BD002085
:10050000A06440210855204600F0A8F8606C102235
:10051000104270D12068816849076CD4616C130166
:10052000994302231943616481688907890F01296E
:1005300005D10168C9070FD1C16809040CD4C1688D
:100540001826B143A6683143C16020680169666816
:1005500089008908314301612068C1683D4E3140FE
:10056000C160A069E1698003C9030843216A4E03A1
:100570003043666B012E02D00126360300E00026D0
:100580003043E66830432669022E08D00026304307
:10059000266B76003043666A012E02D00BE00426FB
:1005A000F5E7002928D0616C202631436164A16CF5
:1005B00001263143A164A16A0E46FF3EC23E02D02D
:1005C000E66A314308432168CE680643CE600126BF
:1005D000A16B3607B14213D0012911D002290FD0E7
:1005E00003290DD004290BD0052909D0062907D0ED
:1005F000072905D010E028E0012109040843DAE7C3
:1006000021684E69F608F6004E6121684E69278F11
:100610007F077F0F3E434E612168C9680E4E31400F
:10062000814207D10020A064606C80088000401CDB
:10063000606408E0606C984310436064A06C012122
:100640000843A06401252846F8BD606C104360642F
:10065000F8E700001902FEFFE7FF3F8370B505468B
:100660000068174986B0884228D11648826941152A
:100670000A438261806900260840059003200090AB
:100680000190092069460296C00600F033FA0E4830
:100690000E4C41C48020266060604000A060800055
:1006A000E0602020666120610848083C00F0ACF959
:1006B000002801D0FFF755FEEC63656206B070BDFF
:1006C0000024014000100240080002400401002004
:1006D000F7B5044600680025806840073DD42646EB
:1006E0004036307801280AD001273770E0690128A8
:1006F00007D02046FFF7D6FD050002D02EE00220ED
:10070000FEBD606C16490840FF210131084360645A
:100710000020A0643070E16B12488862E16B1248DF
:10072000C862E16B1148086321681C2008602068DA
:1007300041681022114341602068C1683943C1609B
:100740002168E06B4031029B019A00F087F9206834
:10075000816804221143816000E002252846FEBD25
:10076000FEF1FFFFAF010008350200081B02000880
:10077000F8B50646044640363078012807D00127F0
:1007800037702046FFF7EAFC050002D024E0022083
:10079000F8BD2068C16849084900C160E06B00F0FD
:1007A0001FF8050003D0606C402108436064206896
:1007B0004168102291434160002D204602D0FFF78E
:1007C0003EFD09E0FFF73BFD050005D1606CFF2110
:1007D0000131884338436064002030702846F8BDFA
:1007E000F8B504460068016849084900016000F056
:1007F00035FA00272546064620350EE000F02EFA91
:10080000811B7D20C000814207D9A06B20210843B5
:10081000A063032068702F70F8BD20680068C007CF
:10082000ECD1012068702F700020F8BDF8B50446A7
:1008300074480168734A734E724F08322068D314AB
:100840001C363037904201D1082210E0B04201D16D
:1008500080220CE0B84201D11A4608E0694A4432CD
:10086000904202D10122D20301E00122D2042546A6
:100870001140203500292ED00168C94309072AD428
:1008800001680822914301605E492068083188426E
:1008900001D1082010E0B04201D180200CE0B84224
:1008A00001D1184608E057494431884202D101205D
:1008B000C00301E00120C00452494860A06B01213F
:1008C0000843A0630420687000202870216B002971
:1008D00001D0204688474B4802684A4920680831C1
:1008E0000B15884201D1042110E0B04201D1402112
:1008F0000CE0B84201D1194608E04249443188422F
:1009000002D10121890301E0012189040A422BD08F
:100910000168C943490727D40168890603D40268DE
:1009200004218A430260374920680831884201D196
:10093000042010E0B04201D140200CE0B84201D1C7
:10094000184608E02F494431884202D10120800333
:1009500001E0012080042B49486011206870E16AA1
:10096000002901D02046884726480268254920688A
:100970000831884201D1022311E0B04201D1202385
:100980000DE0B84202D101235B0208E01D4B443365
:10099000984202D101235B0301E001235B041A4268
:1009A0002ED00268D24392072AD40268920603D45A
:1009B000026802239A4302602068884201D1022023
:1009C00011E0B04201D120200DE0B84202D1012057
:1009D000400208E00B494431884202D10120400323
:1009E00001E00120400407494860A06BA06301209A
:1009F000687000202870A16A002901D0204688472D
:100A0000F8BD000000000240F0B5002806D0014605
:100A100020314A780024002A02D002E00120F0BDF3
:100A20000C7002224A7005682B680B4A86681340D6
:100A3000426807693243C6683E43324346693243DF
:100A400086693243C66932431A432A6084630120AF
:100A500048700020F0BD00000FC0FFFFF8B504464D
:100A600020300578012D1ED0012505700226467024
:100A700020680768AF4307602046FFF75DFC2068E9
:100A8000016831430160206801680422114301605C
:100A90002068016808221143016020680168294329
:100AA00001600020F8BD0220F8BD31B500F0D6F895
:100AB000044600F0D3F80099001B8842F9D338BDF2
:100AC00005494878420602D5BF22104001E0402285
:100AD0001043487070470000F800002010B504492A
:100AE0004A69024202D04861FFF7EAFF10BD0000E8
:100AF00000040140F8B500238DE001249C40A44689
:100B000022407DD04C68022C01D0122C0CD1DC0884
:100B1000A40027183C6A5D07ED0E0F26AE40B443D3
:100B20000E69AE4026433E6205685E000324B44071
:100B30000F79A543BF07BF0FB7402F4307604D682C
:100B4000012D05D0022D03D0112D01D0122D0ED173
:100B50008568CF68A543B7402F43876047686546DF
:100B6000AF430D79ED06ED0F9D403D434560C568EF
:100B7000A5438C68B4402C43C4604C68E40049D55C
:100B8000284CA56901263543A561A4699D08344018
:100B90000094254CAD002F19BC689D072E0F0F2522
:100BA000B540AC430925ED06A84201D100250FE070
:100BB0001E4DA84201D101250AE01D4DA84201D1D8
:100BC000022505E01B4DA84201D1032500E00525C3
:100BD000B5402543BD60184C25684E689543F60323
:100BE00000D51543256065684E689543B60300D56A
:100BF00015436560A5684E689543F60202D500E08E
:100C000008E01543A560E5684E689543B60200D537
:100C10001543E5605B1C0A681446DC4000D06CE7B5
:100C2000F8BD000000100240000001400004004830
:100C300000080048000C004800040140006908401A
:100C400000D00120704742694A4042617047002A43
:100C500001D08161704781627047000001480068DF
:100C6000704700002400002002480168491C016010
:100C7000704700002400002010B5064801681022CB
:100C800011430160002000F007F800F017F8002081
:100C900010BD00000020024010B5044600F0CEF860
:100CA0007D21C900FFF71EFA00F0D2FA002221468A
:100CB000501E00F029F8002010BD000008B50C48B7
:100CC00081690122114381618069104000220090F6
:100CD0001146501F00F018F800221146901E00F037
:100CE00013F800221146501E00F00EF808BD000057
:100CF00000100240C106C90E012088400149086069
:100D00007047000000E100E010B500F0C3FC10BD2A
:100D1000F8B5054644480E460068C007C00FB0420B
:100D20000AD241480168490849003143016000681E
:100D3000C007C00FB0425CD128783C4C800705D575
:100D40006068F0218843A968084360602878C0077C
:100D50003FD06868012813D02168022813D0890782
:100D6000002946DA61688908890001436160FFF75C
:100D700075FF6968074601290DD0022917D024E0C4
:100D800021688903ECE78901EAE7FFF767FFC11BE8
:100D90002748814217D860680007800F0128F4D1E6
:100DA00017E0FFF75BFFC11B214881420BD8606849
:100DB0000007800F0228F4D10BE0FFF74FFFC11BA3
:100DC0001B48814201D90320F8BD60680007800FED
:100DD000F3D115480168C907C90FB1420BD90168A1
:100DE00049084900314301600068C007C00FB042A4
:100DF00001D00120F8BD2878400706D5606807219A
:100E000009028843E9680843606000F02DF86168D2
:100E1000084A0906090F515CC840074908600020CC
:100E2000FFF73AFF0020F8BD00200240001002400A
:100E300088130000441D00082000002001480068BD
:100E400070470000200000200448054900684968F8
:100E5000044A4905490F515CC840704720000020F2
:100E600000100240541D000810B512A30FCB88B02B
:100E70006C460FC413A30FCB0FC416494A680C204D
:100E8000134603401448042B0FD0082B0DD19302B6
:100E90001B0F6C46E45CC96A04AB0907090F595C77
:100EA000D20304D5FFF71EF9604308B010BD0B480C
:100EB0006043FAE702030405060708090A0B0C0D54
:100EC0000E0F10100102030405060708090A0B0C97
:100ED0000D0E0F100010024000127A0000093D00B4
:100EE000FEB504460078D04DC00747D068680007BB
:100EF000800F012807D068680007800F022809D1F9
:100F00006868C00306D52868800337D56068002864
:100F10007ED033E0012062680004012A11D08100F4
:100F2000002A01D0052A10D02A6882432A60286846
:100F3000884328606068002814D0FFF78FFE0646BB
:100F40000CE0296801432960F4E72A680A432A6013
:100F5000F7E7FFF783FE801B64286FD828688003BB
:100F6000F7D50BE0FFF77AFE064604E0FFF776FEC2
:100F7000801B6428F1D828688003F7D420780126E4
:100F8000800700283BDA68680007800F07D0686890
:100F90000007800F022809D16868C00306D42868BA
:100FA000800715D5E068012832D111E0E0680028FB
:100FB000286815D030432860FFF750FE074604E04C
:100FC000FFF74CFEC01B0228C7D828688007F7D55A
:100FD0002868F82188432169C900084328600EE089
:100FE000400840002860FFF739FE074604E0FFF79D
:100FF00035FEC01B0228B0D828688007F7D42078B7
:10100000000724D5E0690028686A10D0304300E06A
:1010100008E16862FFF722FE074604E0FFF71EFEC4
:10102000C01B022899D8686A8007F7D50FE04008EE
:1010300040006862FFF712FE074605E09DE0FFF7FB
:101040000DFEC01B022888D8686A8007F7D4207874
:1010500004274007002860DA00200190E869C000FA
:1010600008D4E969B8060143E961E9690140012052
:10107000009101906D480168C90511D4016882157D
:1010800011430160FFF7EAFD009005E0FFF7E6FD80
:101090000099401A642870D864480068C005F5D5E6
:1010A000A06801280AD0002801D0052810D0286A9D
:1010B000400840002862286AB84301E0286A3043AB
:1010C0002862A068002812D0FFF7C8FD00900AE04F
:1010D000286A38432862F1E7FFF7C0FD0099411AFA
:1010E0005348814249D8286A8007F5D50DE0FFF7BB
:1010F000B5FD009006E0FFF7B1FD0099411A4C489C
:1011000081423AD8286A8007F5D40198002804D093
:10111000E969012000078143E9612078C00635D5DF
:10112000606901280CD0401D686B23D03843686388
:10113000686B400840006863FFF790FD064622E0B8
:10114000686B38436863686B30436863FFF786FDFC
:10115000064604E0FFF782FD801B02285BD8686B1F
:101160008007F7D5686BF8218843A169C900084357
:1011700068630BE0B8436863F4E74CE0FFF76EFD8B
:10118000801B022847D8686B8007F7D4206A0028A4
:1011900046D069680907890F022943D0012636061F
:1011A0000228286805D0B0432860FFF757FD0446A1
:1011B00033E0B0432860FFF751FD074604E0FFF736
:1011C0004DFDC01B022826D828688001F7D4E86AA4
:1011D000E16A000900010843E862616AA06A084305
:1011E00069683D22120491430843686028683043CF
:1011F0002860FFF733FD044604E0FFF72FFD001BD6
:10120000022808D828688001F7D509E0FFF726FDF5
:10121000001B022801D90320FEBD28688001F5D4F7
:101220000020FEBD0120FEBD001002400070004005
:1012300088130000042204490428086902D090435E
:10124000086170471043FBE700E000E070470000D2
:10125000094910B5401E884201D9012010BD074C34
:1012600060610321081F00F015FA0020A06107202B
:101270002061002010BD0000FFFFFF0000E000E043
:1012800010B5FFF7E3FF10BD704710B504460068C6
:10129000C169C90707D00168C90504D501210162E8
:1012A000E06E0843E0662068C16902228B070421D2
:1012B000002B06DA8368DB0703D00262E06E084386
:1012C000E0662068C3695B0706D58368DB0703D047
:1012D0000162E06E1043E0662068C169090707D526
:1012E0008168C90704D008210162E06E0843E06606
:1012F0002068C169890605D50068800602D52046A8
:1013000000F0D1FA2068C169090605D50068000619
:1013100002D5204600F0A0FB2068C169490605D52A
:101320000068400602D5204600F0B0FAE06E0028C2
:1013300007D0202120466030417281722046FFF79D
:10134000A3FF10BD70B5040005D025466035687A4E
:10135000002802D006E0012070BD0020287220463F
:1013600000F026F8242068722068016849084900C6
:101370000160204600F0D8FA0128EDD0606A00280C
:1013800002D0204600F014FA206841680122D202FF
:101390009143416020688168082291438160206800
:1013A0000168012211430160204600F066FA70BD19
:1013B00000B50068124987B088421ED11148C26941
:1013C000012149040A43C261C069084005900C200C
:1013D00000900220019001210320039002910491CA
:1013E00009206946C006FFF785FB002211461C2034
:1013F000FFF78AFC1C20FFF77DFC07B000BD000052
:10140000004400400010024070B5034660339C7AEF
:10141000202C3ED100290BD0002A09D00125846858
:101420002D03AC4206D10669002E03D1CE0701D0B0
:10143000012070BD1E7A012E2BD001261E7241653F
:10144000014640310A834A83FF22AC4204D1046939
:10145000002C07D1104A05E0002C04D10469002CAF
:1014600000D07F228A830021C16622229A720268FC
:101470001468FF2501352C431460026894683443D6
:1014800094601972006801682022114301600020F5
:1014900070BD022070BD0000FF01000030B516488D
:1014A000002101704170831C02789C5C812C04D067
:1014B000521CD2B20270072AF6D941700E49D4B23A
:1014C00009314278A518072D03D3ED18203D6D7E14
:1014D00001E015195D5D8D54521CD2B24270072A8D
:1014E000EFD90878812805D188798F2802D14878EA
:1014F0000249887030BD000010000020F800002074
:1015000030B5034660335C7A202C23D100290BD000
:10151000002A09D0012584682D03AC4206D1046954
:10152000002C03D1CC0701D0012030BD1C7A012C46
:1015300010D0C164014640310A824A820021C1664E
:1015400021225A72197200680168802211430160D9
:10155000002030BD022030BD7047FEE73EB5164981
:101560001648002412C004604460012504618560AF
:101570004461C46185618562C56204214462C160C1
:101580000838FEF7B1FF002800D0FEE70120000375
:10159000019000040290009469460848FEF7E2FEBC
:1015A000002800D0FEE7694604480095FEF7DAFE01
:1015B000002800D0FEE73EBD0024014028000020A6
:1015C00070B5224886B042690121C9040A434261CC
:1015D00042690A400592426989100A4342614269A0
:1015E0000A400592426949000A434261406909265E
:1015F0000840F6060590002220213046FFF727FB21
:10160000202001240025694631C1694630460395F2
:10161000FFF770FA8720C000009069460195029498
:101620000B48FFF767FAA00200900A48019069464C
:1016300002943046FFF75EFA002211460720FFF7BA
:1016400063FB0720FFF756FB06B070BD0010024099
:10165000000400480000211010B50C480A49016040
:101660004B210902416000218160C16001618161FB
:10167000C1610C22016242614162FFF763FE0028F2
:1016800000D0FEE710BD00000044004074000020C0
:10169000704700008307FF22DB0E9A408907090E7E
:1016A000994000280BDA0007000F08388308084823
:1016B0009B001818C36993430B43C36170478308A9
:1016C00004489B001B181868904308431860704733
:1016D00000ED00E000E400E07047704710B5FFF750
:1016E000C3FAFFF7CDFD10BD30B591B012200090C8
:1016F0000120039005901020049006900320002400
:10170000C00402250A90089509940B946846FFF7D7
:10171000E7FB002800D0FEE707200C900E94012183
:101720000D950F940CA8FFF7F3FA002800D0FEE700
:10173000FFF784FB7D21C900FEF7D4FCFFF788FD8D
:101740000420FFF777FD00221146501EFFF7DCFA58
:1017500011B030BD13480168012211430160416896
:10176000114A114041600168104A1140016001684E
:10177000012292049143016041683F221204914387
:101780004160C16A09090901C162016BFF2214327B
:1017900091430163416B4908490041630021816025
:1017A00070470000001002400CB8FF08FFFFF6FE73
:1017B00010B5818CC90707D001684A6801235B0412
:1017C0009A43836A1A434A60818C890707D5016866
:1017D0004A6801231B049A43C36A1A434A60818CF6
:1017E000490707D501684A6801239B049A43036BA4
:1017F0001A434A60818C090707D501684A680123AA
:10180000DB039A43436B1A434A60818CC90607D5B0
:101810000268916801231B039943836B194391600C
:10182000818C890607D501688A6801235B039A4386
:10183000C36B1A438A60818C490612D503685A68C3
:1018400001210905046C8A4322435A60026C8A42D2
:1018500007D10268516803235B059943436C194320
:101860005160818C090607D501684A680123DB04B1
:10187000806C9A4302434A6010BD0021C166202259
:1018800060304272827201720846704710B501687A
:101890000A6840239A430A60202269210A54FFF70C
:1018A0005BFE002010BD70B5024640320346603337
:1018B000948B9D7A0168222D05D0886908221043F7
:1018C0008861022070BD012685683603B54202D1C9
:1018D0000569002D0CD08D8C416D25404C1C446554
:1018E0000D70518B491E0904090C518308D019E071
:1018F000898C456D21402980416D891C4165F0E747
:101900000268146820218C43146002681468CD00BA
:10191000AC4314600268946864086400946099722F
:10192000FFF7BCFD002070BDF8B504462369A2682E
:10193000E5691A43636910202B43002125681A4387
:101940002B680E463E4F3B4013432B6023685A687A
:1019500003252D03AA43E5682A435A60236AA26936
:1019600025681A43AB680B273F02BB431343AB60A8
:10197000344A2568954210D1334A126B9207920F70
:101980000ED0012A05D0022A05D0032A09D102204F
:1019900007E0042005E0082003E02C4A954200D12E
:1019A00000200122E369D203934224D100280CD005
:1019B00002280DD0042813D0082817D001260A09C0
:1019C00012010807400F10432FE0FFF73DFA09E02E
:1019D00061681F4A48088018FEF784FB81B2EEE771
:1019E000FFF742FA616840004A08F4E761680122A3
:1019F00048081204EFE7002808D0022809D004287C
:101A00000BD0082814D001263046F8BDFFF71CFA89
:101A100005E061680F4A48080CE0FFF725FA6168A5
:101A20004A088018FEF75EFB80B22168C860EBE7C9
:101A3000616848088018FEF755FB80B2E860E3E76C
:101A4000F369FFFF003801400010024000440040ED
:101A50000024F40000127A006921095C212901D0D8
:101A60000220704702464032518A002912D00123D9
:101A700081681B03994202D10169002915D0C16C0C
:101A80004B1CC364006809780185508A401E50824F
:101A90000020704701680A6880239A430A60006842
:101AA0000168402211430160F2E7C16C03680988B4
:101AB000C905C90D1985C16C891CC164E5E7000021
:101AC00010B50448FFF7E1FB072203490148FFF77F
:101AD0009BFC10BD740000201200002002E008C82A
:101AE000121F08C1002AFAD170477047002001E098
:101AF00001C1121F002AFBD17047000008B5FFF793
:101B0000BBF8FFF7F1FDFFF75BFD86484169012255
:101B100011434161406910400022009011460920A4
:101B2000FFF7F2F80920FFF7E5F8FFF795FDFFF75B
:101B300015FD7D480068026820210A4302607A4949
:101B40000A2270310846BC38FEF7C2FD764D802768
:101B5000764C84353220FEF7A8FF09202021C006EC
:101B6000FFF771F86E783E436E707006A0885BD503
:101B70006F4988420AD962886E495218FF212C3178
:101B80008A4203D230090001012146E07D21C900CB
:101B9000884208D2628867495118C72903D23009A0
:101BA0000001022139E0638861498B4207D961490C
:101BB0004118C72903D23009000104212DE07D21FD
:101BC000C9008B420AD25B4964314218FF212C3193
:101BD0008A4203D23009000103211EE07D21490120
:101BE0008B4205D9884203D930090001052114E050
:101BF000322B0BD2322803D23009000108210CE02D
:101C000088420CD930090001062106E08B4206D932
:101C1000322804D230090001072108436870434983
:101C200068780A3148703DE02081E0806188424A4E
:101C3000914207D33F4B4218903BD218411AE280A1
:101C4000584203E03C4A511A421AE28008182081A7
:101C50000620205E3949884200DDE1800820205EB0
:101C6000884200DD21810620205E002801DA002064
:101C7000E0800820205E002801DA00202081062074
:101C8000205E2E49C201101AFEF742FA2070082089
:101C9000205EC101081A2949FEF73AFA607030093E
:101CA00000016870264E08213046FEF7C7FF002865
:101CB0002FD020213046FEF7C1FF00282BD0102165
:101CC0003046FEF7BBFF002827D0012189023046AD
:101CD000FEF7B4FF002822D00020E87013488121CD
:101CE0000A30017069784170217881706178C17023
:101CF000E97801718F214171014606220A48FFF7F8
:101D0000FFFB09490A2270310846BC38FEF7E0FCA7
:101D100020E70820E1E70220DFE70120DDE70420DB
:101D2000DBE70000001002407400002000000020EB
:101D3000B80B000093F8FFFFFD070000FF0F000045
:101D4000000400480000000000000000010203043D
:101D50000607080900000000010203047C1D0008BA
:101D60000000002028000000DC1A0008A41D000864
:101D70002800002018050000EC1A00084040000070
:101D80000000000000000000000000000000000053
:101D900000000000000000000000000000127A00B7
:041DA000000000003F
:04000005080000B53A
:00000001FF
